:020000040000fa
:080000000001040000000000f3
:020000040000fa
:04000800560400009a
:020000040000fa
:04000c005604000096
:020000040000fa
:040010005604000092
:020000040000fa
:04001400560400008e
:020000040000fa
:04001800560400008a
:020000040000fa
:04001c005604000086
:020000040000fa
:040020005604000082
:020000040000fa
:04002400560400007e
:020000040000fa
:04002800560400007a
:020000040000fa
:04002c005604000076
:020000040000fa
:040030005604000072
:020000040000fa
:04003400560400006e
:020000040000fa
:04003800560400006a
:020000040000fa
:04003c005604000066
:020000040000fa
:040040005604000062
:020000040000fa
:04004400560400005e
:020000040000fa
:04004800560400005a
:020000040000fa
:04004c005604000056
:020000040000fa
:040050005604000052
:020000040000fa
:04005400560400004e
:020000040000fa
:04005800560400004a
:020000040000fa
:04005c005604000046
:020000040000fa
:040060005604000042
:020000040000fa
:04006400560400003e
:020000040000fa
:04006800560400003a
:020000040000fa
:04006c005604000036
:020000040000fa
:040070005604000032
:020000040000fa
:04007400560400002e
:020000040000fa
:04007800560400002a
:020000040000fa
:04007c005604000026
:020000040000fa
:040080005604000022
:020000040000fa
:04008400560400001e
:020000040000fa
:04008800560400001a
:020000040000fa
:04008c005604000016
:020000040000fa
:040090005604000012
:020000040000fa
:04009400560400000e
:020000040000fa
:04009800560400000a
:020000040000fa
:04009c005604000006
:020000040000fa
:0400a0005604000002
:020000040000fa
:0400a40056040000fe
:020000040000fa
:0400a80056040000fa
:020000040000fa
:0400ac0056040000f6
:020000040000fa
:0400b00056040000f2
:020000040000fa
:0400b40056040000ee
:020000040000fa
:0400b80056040000ea
:020000040000fa
:0400bc0056040000e6
:020000040000fa
:0400c00056040000e2
:020000040000fa
:0400c40056040000de
:020000040000fa
:0400c80056040000da
:020000040000fa
:0400cc0056040000d6
:020000040000fa
:0400d00056040000d2
:020000040000fa
:0400d40056040000ce
:020000040000fa
:0400d80056040000ca
:020000040000fa
:0400dc0056040000c6
:020000040000fa
:0400e00056040000c2
:020000040000fa
:0400e40056040000be
:020000040000fa
:0400e80056040000ba
:020000040000fa
:0400ec0056040000b6
:020000040000fa
:0400f0000402000006
:020000040000fa
:0400f40056040000ae
:020000040000fa
:0400f80056040000aa
:020000040000fa
:0400fc0056040000a6
:020000040000fa
:0401000056040000a1
:020000040000fa
:04010400560400009d
:020000040000fa
:040108005604000099
:020000040000fa
:04010c005604000095
:020000040000fa
:040110005604000091
:020000040000fa
:04011400560400008d
:020000040000fa
:040118005604000089
:020000040000fa
:04011c005604000085
:020000040000fa
:040120005604000081
:020000040000fa
:04012400560400007d
:020000040000fa
:040128005604000079
:020000040000fa
:04012c005604000075
:020000040000fa
:040130005604000071
:020000040000fa
:04013400560400006d
:020000040000fa
:040138005604000069
:020000040000fa
:04013c005604000065
:020000040000fa
:040140005604000061
:020000040000fa
:04014400560400005d
:020000040000fa
:040148005604000059
:020000040000fa
:04014c005604000055
:020000040000fa
:040150005604000051
:020000040000fa
:04015400560400004d
:020000040000fa
:040158005604000049
:020000040000fa
:04015c005604000045
:020000040000fa
:040160005604000041
:020000040000fa
:04016400560400003d
:020000040000fa
:040168005604000039
:020000040000fa
:04016c005604000035
:020000040000fa
:040170005604000031
:020000040000fa
:04017400560400002d
:020000040000fa
:040178005604000029
:020000040000fa
:04017c005604000025
:020000040000fa
:040180005604000021
:020000040000fa
:04018400560400001d
:020000040000fa
:040188005604000019
:020000040000fa
:04018c005604000015
:020000040000fa
:040190005604000011
:020000040000fa
:04019400560400000d
:020000040000fa
:040198005604000009
:020000040000fa
:04019c005604000005
:020000040000fa
:0401a0005604000001
:020000040000fa
:0401a40056040000fd
:020000040000fa
:0401a80056040000f9
:020000040000fa
:0401ac0056040000f5
:020000040000fa
:0401b00056040000f1
:020000040000fa
:0401b40056040000ed
:020000040000fa
:0401b80056040000e9
:020000040000fa
:0401bc0056040000e5
:020000040000fa
:0401c00056040000e1
:020000040000fa
:0401c40056040000dd
:020000040000fa
:0401c80056040000d9
:020000040000fa
:0401cc0056040000d5
:020000040000fa
:0401d00056040000d1
:020000040000fa
:0401d40056040000cd
:020000040000fa
:0401d80056040000c9
:020000040000fa
:0401dc0056040000c5
:020000040000fa
:0401e00056040000c1
:020000040000fa
:0401e40056040000bd
:020000040000fa
:0401e80056040000b9
:020000040000fa
:0401ec0056040000b5
:020000040000fa
:0401f00056040000b1
:020000040000fa
:0401f40056040000ad
:020000040000fa
:0401f80056040000a9
:020000040000fa
:0401fc0056040000a5
:020000040000fa
:100200008f8320000e7f24000e0188000000000074
:10021000000020000000e000020032000001200089
:100220002002880014000700a20107000000e0007f
:1002300003003a0040c920000100200002003700fe
:100240000000200001002000810f7000010032003a
:1002500014000700000020000000e000020032004f
:100260000000020000000000500602000000000034
:100270000040da000000fe004440a90020002000f9
:100280000000e00003003200100020009001880010
:100290004440a800000006008a1f78008b1f7800e9
:1002a00000000600a1028800800478000000eb0036
:1002b0001f003700e284440054a0b4009905ba003e
:1002c000e284440054a0b4009906ba00e2844400d9
:1002d00054a0b4000006eb00476fde00fd07b2003b
:1002e000ae018800636ce10003003a00eaff0700fa
:1002f0000000eb000e003700606ce10008003a00df
:10030000004deb000a05e800020039003420ec0043
:100310000af0a0008b05e900f9ff3e000400370059
:100320006168e100010032000086eb000b0007006d
:1003300019c7ba001905ba000e04e00003003a001c
:100340000a00e000dbff3a0000000600fe07b200f2
:10035000ae0288008a047800f5ff37000cd0a300b5
:10036000e20f4d001c00390089027800354dba00bb
:100370000a05e800020039003420ec000af0a00071
:100380008b05e9000f003200254dba000a05e80090
:10039000020039003420ec000af0a0008b05e900cf
:1003a000080032000c00e0000600320015cdba0053
:1003b0000a05e800020039003420ec000af0a00031
:1003c0008b05e9008984e80054a0b4000b00e0002c
:1003d000e2ff3a00000006009902ba00055d7800cd
:1003e0008b05e900f7ff3200c82ade00055d7800c2
:1003f0008b05e900f3ff32000c00e000f1ff320052
:1004000019ddba00eeff37003600f800809fbe000d
:10041000829fbe00849fbe00869fbe000000fa003f
:100420008e40a90071258000000820000080600037
:100430000000e00008003200aee4a9000828ef0048
:1004400070408000200090008000eb0001087800e0
:100450000e28ef000e013700404080008000eb00c6
:10046000b200200003002000820f5000838f58004c
:10047000fd003e00006001000b0037003a0037002d
:10048000760037009d003700f4003700c9003700c0
:10049000da003700f1003700dc003700f2003700e7
:1004a0003500370051003700008020002000900008
:1004b000620060000000e000f4003a0000802000cc
:1004c0001000900070408800008020001000900014
:1004d000104078000ae8b70000802000100090006b
:1004e0001000900060408800008020001000900004
:1004f000e6004000008020001100980000802000ed
:100500009000900000822000808f500003003a008d
:1005100000802000a18120001100980000802000b0
:1005200020019000e1ff2f00810061002100980070
:1005300000802000900090000080200010007800d3
:10054000808f500004003a0000802000a00090003e
:100550000110a00021009800aa04a800200020009b
:1005600040408800ca003700aa24a80020002000cc
:1005700040408800c6003700712580000000280038
:10058000008060000000e0000800320000802000d1
:10059000604090008040e8000080200061409800aa
:1005a000400020003c030700b90037008040800075
:1005b0008000d100f00f200000806000302588000e
:1005c0008040800061006000004078000004e0008e
:1005d00003003200b000200040408800ac0037002b
:1005e0003000200040408800a900370071258000bd
:1005f00000002800008060000000e00008003200d9
:1006000000802000604090008040e80000802000d2
:1006100061409800400020001f0307009c00370045
:10062000aa24a800804080004800de00e6006000a8
:10063000000f200001007000804088008040800092
:100640000000a0008040880010c0b30012e8b7008e
:1006500020002000404088008d00370012c8bf00f5
:10066000e14f50000a003200604080001000780026
:10067000804088006040800020009000a0408800fa
:10068000604080002040900016e8b700010037006d
:100690001268ef0081408000f00f2000808f500032
:1006a00009003600804080004800de00e60060005f
:1006b000000f20000100700030258800a0002000fd
:1006c000404088007200370080408000302588005c
:1006d0008040800061006000004078000004e0007d
:1006e00003003200500020004040880068003700be
:1006f00030002000404088006500370071258000f0
:1007000000002800008060000000e00009003200c6
:1007100000802000604090008040e80000802000c1
:1007200061409800afe4a90050002000da02070001
:100730005700370016c8bf008080fb008100e90029
:10074000cf08de00814078000040e90016e8b700dd
:100750000104e000100032006040800066004000ac
:10076000604088000ac8bf000040e9000ae8b700fe
:100770000ac8bf000004e00003003a002000200087
:10078000c502070042003700aa24a800200020006c
:10079000404088003e003700a04080009040780034
:1007a0008180fb00312588000000e800a04088001f
:1007b00037003700712580000000280000806000ad
:1007c0000000e0000900320000802000604090003e
:1007d0008040e80000802000614098004000200038
:1007e000ad020700afe4a90029003700aa64a80001
:1007f0008000200040408800250037008000200055
:1008000040408800aa64a80021003700a040800072
:100810002125800081407800014878000000e80030
:10082000a040880016c8bf000040e90016e8b700e5
:1008300016c8bf000004e00004003200aaa4a9000a
:10084000600020004040880002003700aaa4a800f1
:1008500080020700aa84a8000d00370020002000b5
:100860008d0207000a0037000080200060409000e1
:100870008040e80000802000614098006000200077
:1008800085020700000000000100370000000000a2
:100890000080fa004f03be004f02be004f01be00b1
:1008a0004f00be003600f900004006000040da00ac
:1008b0000000fe0000000500889fbe008a9fbe0069
:1008c0008c1f7800660007006d00330003866c0003
:1008d0006450e1002e0032006420e1003300320059
:1008e0006150e1002f0032006120e1003100320050
:1008f00085855500eb07b0000900200008042000a2
:10090000050037000804440089844c000a003100c7
:100910000603430087834b000001530081815b0085
:10092000f8ff33000203be000800a00008044400e2
:1009300089844c00f6ff3900c639dd00830173005d
:1009400001003200130020008904d1000884d30084
:100950000998a300050032000800a7000300a000ca
:100960008904d1000884d3008b05e8008904d100f4
:100970000884d3000001eb000281d20012000700be
:1009800001f0a1000cf0a70001f0a0004500370025
:100990006420e100470032000801be000200be00f2
:1009a000f7ff37006120e100420032006000b8002c
:1009b000f3ff37000000200001f82700f0ff3700a8
:1009c0006011b8007200370081002000618055007e
:1009d0000b003d000b00200061fe2f000100e10034
:1009e0001d00340082817100610164008904d1001e
:1009f0000884d3000000e800faff3a0071002000ec
:100a00006100640003007000020060000900320011
:100a100061044400e0844c000988a5000500320010
:100a20008b05e8006808e10002003a008904d10063
:100a30000884d300f20f20000258e10005003d00b9
:100a4000c75ddd00f907b2008980750008007800f5
:100a5000000006000bf827008b007800000005005e
:100a60000004be00790007000003be000405be00bc
:100a70000200be0075000700844f750000000600ec
:100a80000200be006450e100050036006420e10071
:100a9000020036000968a30001003a000800be0009
:100aa0000160a0004f0678004f05be004f04be0055
:100ab00000000600f0ff2f00f1ff2700f9ff3700cc
:100ac000889fbe008a9fbe008c1f7800e4ff07004d
:100ad000ebff330003866c006450e1002400320019
:100ae0006420e100270032006150e1002200320062
:100af0006120e100210032008b854200eb07b1004c
:100b00000134b800003ab8000804420089844a0061
:100b1000013ab8000030b8008880400009014a005e
:100b200004003300000040008180480002014900b9
:100b30008b05e900c909dd00830170000100320066
:100b400013002000c814de004814dd004709de0051
:100b50001200b200c808de00088470009aff070087
:100b600001f0a1000cf0a70001f0a000cdff3700bc
:100b70006120e100cfff32000801be000200be008c
:100b8000f7ff37006150e100fcff3a00c9ff370072
:100b9000889fbe008a9fbe00008270000402710020
:100ba00004827100260032000004be000200be0074
:100bb0006011b8006b092000950220000182cf006f
:100bc0000a0039000541b1000082cf00070039005a
:100bd0000541b1000982cf00040039000541b10090
:100be0000882cf00010039000541b10005425200e2
:100bf000120032000a003b00828171006101640032
:100c00008100d1000080d3008984d3000884d30000
:100c10008b05e8000442e800f7ff3a0007003700c0
:100c20000804440089844c0000004800818048008a
:100c30008b05e9000442e900f9ff3a0062ff070072
:100c40004f05be004f04be0000000600c70ade00cc
:100c5000f107b200f50fb20008003200e1cf420008
:100c6000020032000170a00024000500810f700016
:100c7000010032000408050044000500810f7000e7
:100c800002003a00140005008502e900000040005f
:100c900081c04800fcff3b000170a000240005005b
:020000040000fa
:100ca0002400fa006000b800100f9800210f98008f
:100cb000720047002007980010c0b30060479800fa
:100cc00000c1b3007047980010c1b300004f9800f6
:100cd00020c1b300104f98008004200050079800f6
:100ce0000000eb0010179800e3020700a0002000ae
:100cf000750207009206a8008a06a800ee40900040
:100d0000415f98000040eb00505f980021022000f6
:100d10008e8040007c004700810178005e019000d9
:100d200021c0b300690107000000000000020700b5
:100d30000004a2000004e000fcff3a0000000000f4
:100d40001e109000e20f5000fdff3a00fe409000a0
:100d500061579800c0c1b30070579800210220006d
:100d60008e80400076004700810178005e0190008f
:100d700021c0b3005501070000000000ec0107008e
:100d80000004a2000004e000fcff3a0000000000a4
:100d90001e109000e20f5000fdff3a008e489000b8
:100da000015f980000c1b300105f9800210220008d
:100db0008e80400078004700810178005e0190003d
:100dc00021c0b3004101070000000000d801070066
:100dd0000004a2000004e000fcff3a000000000054
:100de0001e109000e20f5000fdff3a009e48900058
:100df000215f980030c0b300305f980021022000ce
:100e00008e8040007a004700810178005e019000ea
:100e100021c0b3002d01070000000000c40107003d
:100e20000004a2000004e000fcff3a000000000003
:100e30001e109000e20f5000fdff3a000000eb0092
:100e4000000f7800010037001e0fe800f07022004c
:100e50009e007800808f5000fbff34008e48900089
:100e6000015f980040c1b300105f9800210220008c
:100e70008e80400078004700810178005e0190007c
:100e800021c0b3001101070000000000a801070005
:100e90000004a2000004e000fcff3a000000000093
:100ea0001e109000e20f5000fdff3a000040eb00e2
:100eb000605f98000040eb00705f98000040eb001e
:100ec0000067980076004700de01900012c0b30072
:100ed00080007800c0822000830107007e00470068
:100ee000de01900012c0b300800078002083200053
:100ef00065010700200220000e004000000178007c
:100f0000c182200020c0b3002201070000000000c1
:100f10001e109000e20f5000fdff3a0078004700dd
:100f2000de01900012c0b30080007800c082200073
:100f30006d0107007f004700de01900012c0b30082
:100f400080007800208320004f010700200220004d
:100f50000e00400000017800c182200020c0b300d4
:100f60000c010700000000001e109000e20f50006e
:100f7000fdff3a007a004700de01900012c0b30086
:100f800080007800c0822000570107000002200086
:100f90000e004000de01900012c0b3008000780017
:100fa0002083200038010700200220000e004000ae
:100fb00000017800c182200020c0b300f5000700c6
:100fc000000000001e109000e20f5000fdff3a00ec
:100fd0006e5890001802070000000000220207006f
:100fe00001102000010060000000e000fbff320063
:100ff0007e58900010020700000000001a0207004f
:1010000001102000010060000000e000fbff320042
:101010000e609000080207000000000012020700a6
:1010200001102000010060000000e000fbff320022
:10103000a0002000603a88004627a8000000eb00ce
:1010400010079800030037001e0090000000e80021
:10105000100798009e009000703e2000808f500086
:10106000f9ff34004627a9000000eb0010079800a4
:10107000030037001e0090000000e80010079800f1
:101080009e009000703e2000808f5000f9ff3400d9
:1010900000000000303a8000610060000000e000c5
:1010a000fcff3200903880008000eb0044fe070017
:1010b000100f9800210f98001e089000ae089000b5
:1010c00032332300330524007dfe070002002c008c
:1010d000f3472400f8fd0700100f9800210f980037
:1010e0002e00900090407800414f98002e00900014
:1010f0000000e80090407800514f98002e009000ca
:101100000080e80090407800614f98002e00900029
:101110006300400090407800714f980000c2b30017
:10112000005798007e489000c301070000000000af
:10113000cd01070001102000010060000000e00068
:10114000fbff32006e489000bb010700000000006a
:10115000c501070001102000010060000000e00050
:10116000fbff32005e489000b30107000000000062
:10117000bd01070001102000010060000000e00038
:10118000fbff32004e489000ab010700000000005a
:10119000b501070001102000010060000000e00020
:1011a000fbff32000e509000a3010700000000007a
:1011b000ad01070001102000010060000000e00008
:1011c000fbff32009cff37000000fa000080200087
:1011d000a18120001100980000802000a181200042
:1011e0000108780000802000a00090000110a000fd
:1011f000210098000080200020019000e1ff2f00d6
:101200008100610021009800008020008040eb00f8
:10121000614098002001200040258800000028003f
:1012200050258800ae24ef008e40a9009e40a80003
:101230000080fa00000006000200fa000080200092
:10124000e0409000014f78001e4078000080fa00d6
:10125000000006000000fa006040800066004000c8
:10126000604088000ac8bf000040e9000ae8b700f3
:101270000ac8bf000004e00003003a00400020005c
:1012800040408800020037001000200040408800e5
:101290000080fa00000006000200fa00000f78004b
:1012a000aa44a80070408000200090000000e000e8
:1012b0000300320070408000200090001e0878007b
:1012c0000828ef000080fa00000006000800fa007d
:1012d000000f7800214798002207980033079800f4
:1012e0000080200020009000610060000000e0000d
:1012f0000a003a00ae0190002e4190009e00780056
:1013000060822000780007003e019000618220008a
:1013100010c0b3001f000700030037003e0090001c
:101320008000eb00010878000080fa000000060051
:101330000800fa00000f7800214798002207980063
:1013400033079800008020002000900061006000ba
:101350000000e0000a003a00ae0190002e4190002b
:101360009e00780000822000470007003e019000a8
:101370000182200010c0b300060007000300370000
:101380003e0090008000eb00010878000080fa0029
:10139000000006000600fa00004f780011079800d0
:1013a000220798000080200020009000610060006b
:1013b0000000e0002f003a002e00900011002000f5
:1013c0000108780000802000100078009e00900046
:1013d0001100980000802000100078001e4878005e
:1013e0000080200010007800ae00900021009800de
:1013f0000080200010007800e600400000802000ff
:101400000108780000802000900078000082200011
:10141000808f500003003a0000802000a18120004e
:10142000010878000080200020019000d1ff2f00eb
:101430008100610021009800008020009000900051
:101440000080200010007800808f500004003a00d7
:1014500000802000a00090000100a0002100980062
:10146000404080000000e00005003a008e40a800e7
:10147000030037002e0090008000eb000108780088
:101480000080fa00000006000800fa00000f780053
:101490001107980042479800330798003e009000db
:1014a00000004000800078001e00780001087800ed
:1014b0001e00780010007800800078000100a00075
:1014c0001e007800010878001e007800ce409000d1
:1014d000214098001e0078009e0090002100980096
:1014e0000080fa00000006000800fa00000f7800f3
:1014f0001107980042479800330798003e0090007b
:1015000000004000800078001e007800010878008c
:101510001e007800ce409000214098001e00780008
:101520009e009000210098000080fa000000060054
:101530000000fa0000802000200090000000d10090
:10154000614060000080fb0000f0a7000000ea009e
:101550000000ea004f00de00004078000080fa0042
:10156000000006000000fa0000802000200090002b
:10157000614060000080fb0000f0a7000000ea006e
:101580000000ea004f00de00004078000080fa0012
:10159000000006000000fa00413a8000f0ff23003e
:1015a00000806000403a880049a7a90000c0eb0015
:1015b0004ae7b700313a8000f0f02f000080600069
:1015c000303a8800513a8000f00f2e000080600011
:1015d00000c0a000503a8800313a8000f0cf2f00c0
:1015e00000806000303a8800413a800030f82f00d7
:1015f00000806000403a880047e7a8000080fa00b9
:10160000000006000000fa004627a8000080fa004b
:10161000000006000000fa004627a9000080fa003a
:10162000000006000600fa00200798002071200044
:10163000100798000000eb00000f78000b00370047
:101640001e00780000004000ae00900000804000c6
:101650009e00900091007800010878001e00900024
:101660000080e800100798001e0fe80018c8bf00af
:101670000080fb009e0f5000f1ff3d001e0078002f
:101680000080fa00000006000000fa009038800098
:101690000080fa00000006000000fa00303a8000e6
:1016a00000407800614060000080fb0000f0a7006f
:1016b0000000ea000000ea004f00de000040780071
:1016c0000080fa00000006000200fa00000f780017
:1016d0009e007800613a88000080fa000000060051
:1016e0000000fa0089a0a9000080fa0000000600ae
:1016f0000000fa006626ef007a26ef008e26ef0043
:10170000f0f9270010338800f0f72f00b03388007d
:10171000f03f2000503488007426ef008826ef0048
:101720009c26ef007226ef008626ef009a26ef0037
:101730006826ef007c26ef009026ef00f0002000e6
:101740005033880000202f00f0338800f000200084
:101750009034880001088000f00b200000816000b8
:1017600060042000710520000310200080497800eb
:101770008149780082497800d13e8000f00f28002e
:10178000808060000050200001007000d03e880082
:10179000b13d800000fc2f00008060000030a00000
:1017a000b03d880000088000000178000260a000c1
:1017b000600420007105200003102000804978009b
:1017c00081497800824978000080fa000000060014
:1017d0000000fa0080002000701d8800b023ef0098
:1017e00070062000b01d8800b823ef00afe3a8000a
:1017f000b143a8000080fa00000006000000fa00d3
:1018000000000000801d8000610060000000e0001a
:10181000fcff3200801d8000620060000000e000dc
:1018200001003200b023a900a01d80000040780014
:101830000080fa00000006000200fa00004f780065
:1018400000000000811d800000202000008060005a
:101850000000e000fbff3a001e80fb00901d8800a6
:101860000080fa00000006000000fa00801d8000e1
:101870000080fa00000006000000fa009cff07004c
:101880001c0007000600070042ff07007ae6a900d7
:10189000cfff07004cfe07000080fa0000000600a2
:1018a0000000fa000001eb00600420007105200038
:1018b000031020008049780081497800824978002f
:1018c00000002300100888000621ef006821ef00c7
:1018d0006a21ef006c21ef000821ef00007020006a
:1018e000500888000c21ef000e21ef000080fa0064
:1018f000000006000000fa0001068000f08f2f00b3
:10190000008060000080a0000006880001068000c2
:10191000f0f82f00008060000040a0000006880062
:081920000080fa00000006003f
:020000040000fa
:101928002c0800000c0000008000000018080000cf
:1019380002000000800000001a08000012000000e9
:10194800800000000008000018000000800000006f
:04195800000000008b
:020000040000fa
:020000040005f5
:045e0000ffff0000a0
:020000040000fa
:020000040005f5
:045e3000f8ffff0078
:020000040000fa
:020000040005f5
:045e3800b7ffff00b1
:020000040000fa
:020000040005f5
:045e40009fffff00c1
:020000040000fa
:020000040005f5
:045e4800ffffff0059
:020000040000fa
:020000040005f5
:045e5000deffff0072
:020000040000fa
:020000040005f5
:045e5800fbffff004d
:00000001FF
